:100000000C9434000C9449000C9449000C94490061
:100010000C9449000C9449000C9449000C9449003C
:100020000C9449000C9449000C9449000C9449002C
:100030000C9449000C9449000C9449000C9449001C
:100040000C9449000C9449000C9449000C9449000C
:100050000C9449000C9449000C9449000C944900FC
:100060000C9449000C94490011241FBECFEFD8E036
:10007000DEBFCDBF11E0A0E0B1E0E6E2F3E002C0F8
:1000800005900D92A231B107D9F70E9478010C9426
:1000900091010C940000E9EBF0E080818C7F80837B
:1000A00088E48093B80084E08093BC00089584EADB
:1000B0008093BC008091BC0087FFFCCF80E78093D9
:1000C000BB0084E88093BC008091BC0087FFFCCF1C
:1000D000089584E98093BC0008958093BB0084E870
:1000E0008093BC008091BC0087FFFCCF089584EC16
:1000F0008093BC008091BC0087FFFCCF08951F93C4
:10010000CF93DF93CDB7DEB761970FB6F894DEBF1C
:100110000FBECDBF182F81E1E0E0F1E0DE011196C6
:1001200001900D928A95E1F7812F82958F70E1E021
:10013000F0E0EC0FFD1FE80FF11D80810E944001EF
:100140001F70E1E0F0E0EC0FFD1FE10FF11D808179
:1001500061960FB6F894DEBF0FBECDBFDF91CF9191
:100160001F910C9440010E9457008CEA0E946D0080
:1001700083E30E946D0080E00E946D0084E980931B
:10018000BC002FEF87EE93E0215080409040E1F7D4
:1001900000C000000895CF92DF92EF92FF920F937C
:1001A0001F93CF93DF93CDB7DEB727970FB6F894A1
:1001B000DEBF0FBECDBF84EA8093BC008091BC003F
:1001C00087FFFCCF81E78093BB0084E88093BC006D
:1001D0008091BC0087FFFCCFCE0101967C016E01AF
:1001E00097E0C90ED11C87010E9477008091BB0067
:1001F000F80181938F01EC15FD05B1F784E8809338
:10020000BC008091BC0087FFFCCF8091BB008F8336
:1002100084E98093BC0000E010E0F70181917F0148
:100220000E947F000630110519F080E20E94400113
:100230000F5F1F4F0730110581F78DE00E944001CD
:100240008AE027960FB6F894DEBF0FBECDBFDF91D0
:10025000CF911F910F91FF90EF90DF90CF900C9472
:10026000400182E08093C0001092C50080E180933D
:10027000C40088E18093C10086E08093C2000895A5
:100280009091C00095FFFCCF8093C60008958091A7
:10029000C00087FFFCCF8091C60008950F931F9385
:1002A000CF938C01C0E0F801EC0FF11D8081882311
:1002B00021F00E944001CF5FF6CFCF911F910F91A7
:1002C0000895CF93982F92959F70C82FCF709A3032
:1002D00010F480E301C087E5890F0E944001CA3015
:1002E00010F480E301C087E58C0FCF910C9440019E
:1002F0000E9431010E944B002FEF81EE94E02150CB
:1003000080409040E1F700C000000E94B3000E94CE
:10031000CB002FEF83ED90E3215080409040E1F738
:06032000F2CFF894FFCFBC
:100326003031323334353637383941424344454625
:020336000000C5
:00000001FF
