:100000000C9434000C944B000C943E000C943E0075
:100010000C943E000C943E000C943E000C943E0068
:100020000C943E000C943E000C943E000C943E0058
:100030000C943E000C943E000C943E000C943E0048
:100040000C943E000C943E000C943E000C943E0038
:100050000C943E000C943E000C943E000C943E0028
:100060000C943E000C943E0011241FBECFEFD8E04C
:10007000DEBFCDBF0E9468000C946C000C940000A1
:10008000209A52985A9AE9E6F0E080818360808352
:10009000E89AE09A08951F920F920FB60F921124DA
:1000A0002F938F939F9395B181E0892785B92FEF87
:1000B00089EF90E0215080409040E1F700C00000BF
:1000C0009F918F912F910F900FBE0F901F901895B9
:0C00D0000E9440007894FFCFF894FFCF0E
:00000001FF
