:100000000C9434000C9449000C9449000C94490061
:100010000C9449000C9449000C9449000C9449003C
:100020000C9449000C9449000C9449000C9449002C
:100030000C9449000C9449000C9449000C9449001C
:100040000C9449000C9449000C9449000C9449000C
:100050000C9449000C9449000C9449000C944900FC
:100060000C9449000C94490011241FBECFEFD8E036
:10007000DEBFCDBF11E0A0E0B1E0E6EDF1E002C0EF
:1000800005900D92A630B107D9F70E94B2000C94EA
:10009000E9000C940000ECE7F0E08081806480834C
:1000A0008081806280838081887F8083EAE7F0E0BE
:1000B00080818068808380818760808308958091BB
:1000C0007A00806480937A0080917A0086FDFCCF6C
:1000D00080917900089582E08093C0001092C5005D
:1000E00080E18093C40088E18093C10086E0809322
:1000F000C20008959091C00095FFFCCF8093C60088
:1001000008958091C00087FFFCCF8091C6000895BC
:100110000F931F93CF938C01C0E0F801EC0FF11DFA
:100120008081882321F00E947A00CF5FF6CFCF91A3
:100130001F910F910895CF93982F92959F70C82F7C
:10014000CF709A3010F480E301C087E5890F0E94D8
:100150007A00CA3010F480E301C087E58C0FCF919C
:100160000C947A000E946B000E944B0080917C00EE
:10017000887F80937C000E945F000E949B0080E04B
:1001800091E00E94880080917C00887F816080934C
:100190007C000E945F000E949B0080E091E00E9432
:1001A000880080917C00887F826080937C000E9420
:1001B0005F000E949B0083E091E00E9488002FEF87
:1001C00089EF90E0215080409040E1F700C00000AE
:0601D000CDCFF894FFCF33
:0601D6002C20000A0D00C0
:00000001FF
