:100000000C9434000C9449000C9449000C94490061
:100010000C9449000C9449000C9449000C9449003C
:100020000C9449000C9449000C9449000C9449002C
:100030000C9449000C9449000C9449000C9449001C
:100040000C9449000C9449000C9449000C9449000C
:100050000C9449000C9449000C9449000C944900FC
:100060000C9449000C94490011241FBECFEFD8E036
:10007000DEBFCDBF11E0A0E0B1E0EEE8F1E002C0EC
:1000800005900D92A430B107D9F70E94AF000C94EF
:10009000C5000C940000ECE7F0E080818064808370
:1000A000808180628083EAE7F0E0808180688083DD
:1000B000808187608083089580917A008064809336
:1000C0007A0080917A0086FDFCCF809179000895B6
:1000D00082E08093C0001092C50080E18093C4004C
:1000E00088E18093C10086E08093C20008959091DA
:1000F000C00095FFFCCF8093C60008958091C0009A
:1001000087FFFCCF8091C60008950F931F93CF9374
:100110008C01C0E0F801EC0FF11D8081882321F0F3
:100120000E947700CF5FF6CFCF911F910F91089576
:10013000CF93982F92959F70C82FCF709A3010F45C
:1001400080E301C087E5890F0E947700CA3010F470
:1001500080E301C087E58C0FCF910C9477000E945B
:1001600068000E944B000E945C000E94980080E0A2
:1001700091E00E9485002FEF89EF90E021508040B0
:0E0180009040E1F700C00000EECFF894FFCFF2
:04018E000D0A000056
:00000001FF
