:100000000C9434000C943E000C943E000C943E0082
:100010000C943E000C943E000C943E000C943E0068
:100020000C943E000C943E000C943E000C943E0058
:100030000C943E000C943E000C943E000C943E0048
:100040000C943E000C943E000C943E000C943E0038
:100050000C943E000C943E000C943E000C943E0028
:100060000C943E000C943E0011241FBECFEFD8E04C
:10007000DEBFCDBF0E9443000C9495000C9400009D
:1000800088E68AB9089588E68AB95D9A2FEF83EDEC
:1000900090E3215080409040E1F700C000005D985F
:1000A0005E9A2FEF83ED90E3215080409040E1F77E
:1000B00000C000005E985B9A2FEF83ED90E3215023
:1000C00080409040E1F700C000005B985D9A5E9A26
:1000D0002FEF83ED90E3215080409040E1F700C086
:1000E00000005D985B9A2FEF83ED90E321508040F4
:1000F0009040E1F700C000005E985D9A2FEF83ED1D
:1001000090E3215080409040E1F700C000005E9AEB
:100110002FEF83ED90E3215080409040E1F700C045
:0E01200000005B985E985D98B0CFF894FFCF1A
:00000001FF
