:100000000C9434000C9449000C9449000C94490061
:100010000C9449000C9449000C9449000C9449003C
:100020000C9449000C9449000C9449000C9449002C
:100030000C9449000C9449000C9449000C9449001C
:100040000C9449000C9449000C9449000C9449000C
:100050000C9449000C9449000C9449000C944900FC
:100060000C9449000C94490011241FBECFEFD8E036
:10007000DEBFCDBF11E0A0E0B1E0E6E7F1E002C0F5
:1000800005900D92A630B107D9F70E9463000C9439
:10009000B9000C940000219A529854985A9A5C9A8C
:1000A00082E8809380008DE18093810089E09DE368
:1000B00090938700809386008AE196E09093890070
:1000C0008093880008950E944B002AE136E099B1A0
:1000D00081E0592F547092FF80E08093040199B120
:1000E00081E0492F407194FF80E08093020180916C
:1000F0000301813011F4552331F0809101018130E9
:1001000031F5411124C04A9910C0809100018B3013
:1001100060F4829FA001839F500D112450938900A9
:10012000409388008F5F809300014C9910C08091AC
:100130000001882361F0829FA001839F500D11244C
:1001400050938900409388008150809300014FEFC5
:1001500080E792E0415080409040E1F700C000000D
:100160008091040180930301809102018093010139
:06017000AECFF894FFCFB2
:060176000101010101007E
:00000001FF
