:100000000C9434000C943E000C943E000C943E0082
:100010000C943E000C943E000C943E000C943E0068
:100020000C943E000C943E000C943E000C943E0058
:100030000C943E000C943E000C943E000C943E0048
:100040000C943E000C943E000C943E000C943E0038
:100050000C943E000C943E000C943E000C943E0028
:100060000C943E000C943E0011241FBECFEFD8E04C
:10007000DEBFCDBF0E9443000C9467000C940000CB
:1000800088E68AB9089588E68AB95D9A2FEF83EDEC
:1000900090E3215080409040E1F700C000005D985F
:1000A0005E9A2FEF83ED90E3215080409040E1F77E
:1000B00000C000005E985B9A2FEF83ED90E3215023
:1000C00080409040E1F700C000005B98DECFF894DC
:0200D000FFCF60
:00000001FF
