:100000000C9434000C9451000C9451000C94510049
:100010000C9451000C9451000C9451000C9451001C
:100020000C9451000C9451000C9451000C9451000C
:100030000C9451000C9451000C9451000C945100FC
:100040000C9451000C9451000C9451000C945100EC
:100050000C9451000C9451000C9451000C945100DC
:100060000C9451000C94510011241FBECFEFD8E026
:10007000DEBFCDBF11E0A0E0B1E0E6E0F3E002C0FA
:1000800005900D92A630B107D9F721E0A6E0B1E0C6
:1000900001C01D92AD30B207E1F70E942E010C9411
:1000A00081010C940000ECE7F0E0808180648083A3
:1000B0008081887F8083EAE7F0E0808180688083A8
:1000C000808187608083808180648083089590919F
:1000D0007C00907F90937C0090917C00892B809392
:1000E0007C0080917A00806480937A0080917A000D
:1000F00086FDFCCF809178002091790090E0922BD2
:10010000089582E08093C0001092C50080E1809342
:10011000C40088E18093C10086E08093C200089506
:100120009091C00095FFFCCF8093C6000895809108
:10013000C00087FFFCCF8091C60008950F931F93E6
:10014000CF938C01C0E0F801EC0FF11D8081882372
:1001500021F00E949000CF5FF6CFCF911F910F91B9
:100160000895CF93982F92959F70C82FCF709A3093
:1001700010F480E301C087E5890F0E949000CA3027
:1001800010F480E301C087E58C0FCF910C949000B0
:10019000AF92BF92CF92DF92EF92FF920F931F9395
:1001A000CF93DF93FC01EB016A01009721F480E318
:1001B0008883198248C097FF0AC04A30510539F434
:1001C000F195E195F109EE24E394F12C02C0E12CC4
:1001D000F12C5E0100E010E0CF01B6010E94590150
:1001E00098012F5F3F4F8A30910514F0895A01C062
:1001F000805DD5018D935D01CF01B6010E9459014B
:10020000FB01309711F08901E7CFEF2841F0FE01A3
:10021000E20FF31F8DE2808398012E5F3F4FFE01B6
:10022000E20FF31F108221503109DE01CD018C1B3A
:100230009D0B821793073CF48C9192919D93808340
:1002400021503109F3CFDF91CF911F910F91FF9092
:10025000EF90DF90CF90BF90AF9008950E94810003
:100260000E945300C0E08C2F0E946700909307010A
:10027000809306014AE050E068E071E00E94C80007
:1002800088E091E00E949E0080E091E00E949E0044
:10029000CF5FC33041F783E091E00E949E002FEFD3
:1002A00089EF90E0215080409040E1F700C00000CD
:1002B000D9CF97FB072E16F4009407D077FD09D00D
:1002C0000E946D0107FC05D03EF4909581959F4FEB
:1002D0000895709561957F4F0895AA1BBB1B51E14E
:1002E00007C0AA1FBB1FA617B70710F0A61BB70BA6
:1002F000881F991F5A95A9F780959095BC01CD014B
:060300000895F894FFCF00
:060306002C20000A0D008E
:00000001FF
