:100000000C9434000C9451000C9451000C94510049
:100010000C9451000C9451000C9451000C9451001C
:100020000C9451000C9451000C9451000C9451000C
:100030000C9451000C9451000C9451000C945100FC
:100040000C9451000C9451000C9451000C945100EC
:100050000C9451000C9451000C9451000C945100DC
:100060000C9451000C94510011241FBECFEFD8E026
:10007000DEBFCDBF11E0A0E0B1E0ECEEF3E002C0E6
:1000800005900D92AE30B107D9F721E0AEE0B1E0B6
:1000900001C01D92A531B207E1F70E9460010C94E6
:1000A000F4010C9400000E94B300ECE7F0E08081C2
:1000B000806C80838081807F808380818860808362
:1000C000EAE7F0E0808180688083808187608083B8
:1000D00008950F931F93CF93DF93CDB7DEB72A9781
:1000E0000FB6F894DEBF0FBECDBF80917A0080645A
:1000F00080937A0080917A0086FDFCCF0091780091
:100100008091790010E0182B4AE050E0BE016F5F4B
:100110007F4FC8010E94FA0080E091E00E94D00069
:10012000CE0101960E94D0008BE091E00E94D000A9
:100130009801A4E6B0E00E94AF016F5A7E478109A2
:1001400091092AE730E040E050E00E949001C901A7
:100150002A960FB6F894DEBF0FBECDBFDF91CF91C8
:100160001F910F91089582E08093C0001092C50006
:1001700080E18093C40088E18093C10086E0809391
:10018000C20008959091C00095FFFCCF8093C600F7
:1001900008958091C00087FFFCCF8091C60008952C
:1001A0000F931F93CF938C01C0E0F801EC0FF11D6A
:1001B0008081882321F00E94C200CF5FF6CFCF91CB
:1001C0001F910F910895CF93982F92959F70C82FEC
:1001D000CF709A3010F480E301C087E5890F0E9448
:1001E000C200CA3010F480E301C087E58C0FCF91C4
:1001F0000C94C200AF92BF92CF92DF92EF92FF9227
:100200000F931F93CF93DF93FC01EB016A010097DB
:1002100021F480E38883198248C097FF0AC04A30DE
:10022000510539F4F195E195F109EE24E394F12CAF
:1002300002C0E12CF12C5E0100E010E0CF01B6011C
:100240000E947C0198012F5F3F4F8A30910514F086
:10025000895A01C0805DD5018D935D01CF01B60142
:100260000E947C01FB01309711F08901E7CFEF2854
:1002700041F0FE01E20FF31F8DE2808398012E5FB3
:100280003F4FFE01E20FF31F108221503109DE01C2
:10029000CD018C1B9D0B821793073CF48C9192919E
:1002A0009D93808321503109F3CFDF91CF911F912E
:1002B0000F91FF90EF90DF90CF90BF90AF90089597
:1002C0000E9453000E94690090930F0180930E01D9
:1002D0004AE050E060E171E00E94FA0080E191E0C4
:1002E0000E94D0002FEF87EA91E621508040904095
:1002F000E1F700C00000E6CF97FB072E16F400944C
:1003000007D077FD09D00E94BE0107FC05D03EF45E
:10031000909581959F4F0895709561957F4F0895B1
:10032000052E97FB1EF400940E94A70157FD07D0ED
:100330000E94D20107FC03D04EF40C94A701509503
:100340004095309521953F4F4F4F5F4F08959095C1
:100350008095709561957F4F8F4F9F4F0895A29F15
:10036000B001B39FC001A39F700D811D1124911D89
:10037000B29F700D811D1124911D0895AA1BBB1BF6
:1003800051E107C0AA1FBB1FA617B70710F0A61B95
:10039000B70B881F991F5A95A9F780959095BC01B6
:1003A000CD010895A1E21A2EAA1BBB1BFD010DC0B1
:1003B000AA1FBB1FEE1FFF1FA217B307E407F50715
:1003C00020F0A21BB30BE40BF50B661F771F881FF1
:1003D000991F1A9469F760957095809590959B0187
:0C03E000AC01BD01CF010895F894FFCFDF
:0E03EC0041444320627275743A20000A0D00ED
:00000001FF
