:100000000C9434000C9446000C9446000C9446006A
:100010000C9446000C9446000C9446000C94460048
:100020000C9446000C9446000C9446000C94460038
:100030000C9446000C9446000C9446000C94460028
:100040000C9446000C9446000C944C000C94460012
:100050000C9446000C9446000C9446000C94460008
:100060000C9446000C94460011241FBECFEFD8E03C
:10007000DEBFCDBF21E0A0E0B1E001C01D92A930FC
:10008000B207E1F70E9408010C9410010C940000E3
:100090008AB188668AB908951F920F920FB60F929F
:1000A00011242F933F934F935F936F937F938F937D
:1000B0009F93AF93BF93CF93DF93EF93FF93809181
:1000C000C6002091000130910101232B59F48332A5
:1000D000A1F51092020181E090E0909301018093DC
:1000E00000012BC0E091020191E09E0F909302016C
:1000F000F0E0ED5FFE4F8083809102018630E9F4ED
:1001000060910401809103010E94F700C82F609163
:100110000601809105010E94F700D82F6091080127
:10012000809107010E94F700482F6D2F8C2F0E94AD
:10013000C1001092010110920001FF91EF91DF9137
:10014000CF91BF91AF919F918F917F916F915F916F
:100150004F913F912F910F900FBE0F901F901895C8
:1001600084B5836A84BD85B5836085BDE0EBF0E02E
:10017000808183628083E1EBF0E080818360808313
:10018000089588BD67BD4093B400089582E08093D0
:10019000C0001092C50080E18093C40088E980937C
:1001A000C10086E08093C20008959091C00095FF41
:1001B000FCCF8093C60008958091C00087FFFCCFDC
:1001C0008091C600089590ED980F9A3060F09FEBF3
:1001D000980F963010F4875308959FE9980F963042
:1001E00020F487550895892F089580E00895CF93CE
:1001F000DF93D62F0E94E300C82F8D2F0E94E300CB
:1002000090E1C99F90011124822BDF91CF91089535
:100210000E9448000E94B0000E94C6007894FFCF60
:04022000F894FFCF80
:00000001FF
