:100000000C9434000C943E000C943E000C943E0082
:100010000C943E000C943E000C943E000C943E0068
:100020000C943E000C943E000C943E000C943E0058
:100030000C943E000C943E000C943E000C943E0048
:100040000C943E000C943E000C943E000C943E0038
:100050000C943E000C943E000C943E000C943E0028
:100060000C943E000C943E0011241FBECFEFD8E04C
:10007000DEBFCDBF0E94AD000C94B7000C94000011
:10008000E9EBF0E080818C7F808388E48093B80086
:1000900084E08093BC00089584EA8093BC00809142
:1000A000BC0087FFFCCF80E78093BB0084E880938F
:1000B000BC008091BC0087FFFCCF8091B900887F95
:1000C0000C94960084E98093BC00089582E08093AC
:1000D000C0001092C50080E18093C40088E1809345
:1000E000C10086E08093C20008959091C00095FF02
:1000F000FCCF8093C60008958091C00087FFFCCF9D
:100100008091C60008950F931F93CF938C01C0E098
:10011000F801EC0FF11D8081882321F00E94750009
:10012000CF5FF6CFCF911F910F910895CF93982F66
:1001300092959F70C82FCF709A3010F480E301C061
:1001400087E5890F0E947500CA3010F480E301C072
:1001500087E58C0FCF910C9475000E9466000E9479
:1001600040000E944C0084E98093BC00FFCFF894CB
:02017000FFCFBF
:00000001FF
