:100000000C94B1000C94CE000C94CE000C94CE0055
:100010000C94CE000C94CE000C94CE000C94CE0028
:100020000C94CE000C94CE000C94CE000C94CE0018
:100030000C94CE000C94CE000C94CE000C94CE0008
:100040000C94CE000C94CE000C94CE000C94CE00F8
:100050000C94CE000C94CE000C94CE000C94CE00E8
:100060000C94CE000C94CE0000407A10F35A00A0FD
:10007000724E18090010A5D4E80000E87648170071
:1000800000E40B54020000CA9A3B000000E1F505B1
:10009000000080969800000040420F000000A086FB
:1000A00001000000102700000000E803000000002D
:1000B0006400000000000A000000000001000000D1
:1000C00000002C76D888DC674F0823DFC1DFAE59EB
:1000D000E1B1B796E5E3E453C63AE651997696E87E
:1000E000E6C28426EB898C9B62ED407C6FFCEFBC02
:1000F0009C9F40F2BAA56FA5F490055A2AF75C932D
:100100006B6CF9676DC11BFCE0E40D47FEF520E662
:10011000B500D0ED902E0300943577050080841E45
:10012000080000204E0A000000C80C333333330FA0
:10013000986E12831141EF8D2114893BE65516CF3D
:10014000FEE6DB18D1844B381BF77C1D901DA4BB49
:10015000E424203284725E228100C9F124ECA1E5FE
:100160003D2711241FBECFEFD8E0DEBFCDBF11E089
:10017000A0E0B1E0EAE2F0E102C005900D92A23306
:10018000B107D9F721E0A2E3B1E001C01D92AC3480
:10019000B207E1F70E9439030C9413080C94000095
:1001A0000F931F93E0913301AE2FB0E08D01000F4C
:1001B000111F000F111FF801E05CFE4F6083718377
:1001C00082839383F801EC5CFE4F2083318342836A
:1001D0005383CD01019663E070E00E945203809347
:1001E000330180913201833018F48F5F80933201A4
:1001F0001F910F910895AF92BF92CF92DF92EF922D
:10020000FF920F931F93CF93DF9360913201C62F1C
:10021000D0E05C0100E010E0C12CD12C76010C177D
:100220001D077CF4F50121913191419151915F01BC
:10023000C701B6010E947B036B017C010F5F1F4F5A
:10024000EECFBE01DD0F880B990B0E9491049B013C
:10025000AC01C701B6010E94E703DF91CF911F9166
:100260000F91FF90EF90DF90CF90BF90AF900895E7
:1002700020E030E048EC52E40E941D0520E030E030
:1002800040E05FE30E947B030E945904072E000CAC
:10029000880B990B0E94910420E030E048EC52E476
:1002A0000E94E7030895E9EBF0E080818C7F808372
:1002B00088E48093B80084E08093BC00089584EAC9
:1002C0008093BC008091BC0087FFFCCF80E78093C7
:1002D000BB0084E88093BC008091BC0087FFFCCF0A
:1002E0002FEF83EF91E0215080409040E1F700C074
:1002F0000000089584E98093BC0008958093BB00BA
:1003000084E88093BC008091BC0087FFFCCF0895F7
:1003100084EC8093BC008091BC0087FFFCCF0895E3
:100320001F93CF93DF93CDB7DEB761970FB6F894E5
:10033000DEBF0FBECDBF182F81E1E0E0F1E0DE01AE
:10034000119601900D928A95E1F7812F82958F7019
:10035000E1E0F0E0EC0FFD1FE80FF11D80810E944D
:1003600001031F70E1E0F0E0EC0FFD1FE10FF11D54
:10037000808161960FB6F894DEBF0FBECDBFDF91CE
:10038000CF911F910C9401030E945F018CEA0E949F
:100390007E0183E30E947E0180E00E947E0184E969
:1003A0008093BC002FEF87EE93E021508040904077
:1003B000E1F700C0000008958F929F92AF92BF9224
:1003C000CF92DF92EF92FF920F931F93CF93DF9321
:1003D000CDB7DEB76B970FB6F894DEBF0FBECDBFBB
:1003E00084EA8093BC008091BC0087FFFCCF81E74A
:1003F0008093BB0084E88093BC008091BC0087FFA1
:10040000FCCF7E0185E1E80EF11C6E01EBE1CE0E22
:10041000D11C0E9488018091BB00F70181937F016C
:10042000CE16DF06B1F784E88093BC008091BC0053
:1004300087FFFCCF8091BB0084E98093BC00188DBE
:100440006E89862F90E0A0E0B0E0AC01BD018CE0A9
:10045000440F551F661F771F8A95D1F78F8990E04B
:10046000A0E0B0E024E0880F991FAA1FBB1F2A95C7
:10047000D1F7842B952BA62BB72B212F22952F70EC
:10048000BC01CD01622B0E948F0420E030E048ECDB
:1004900052E40E941D0520E030E040E855E30E9450
:1004A0001D056B017C01698D7A8D7627672776277C
:1004B000CB01A0E0B0E01F70BC01CD01812B0E94F8
:1004C0008F0420E030E048E453E40E941D0520E062
:1004D00030E040E855E30E941D0520E030E048E4AC
:1004E00052E40E947A03A70196010E94D00080E4A2
:1004F00091E00E94FB004B015C0184E391E00E94CB
:10050000FB006B017C0120E030E048EC52E4C501C7
:10051000B4010E941D0520E030E040E05FE30E944E
:100520007B030E945904072E000C880B990B0E9434
:10053000910420E030E048EC52E40E94E7038E0191
:10054000055F1F4F22E030E044E050E00E948A0542
:1005500020E030E048EC52E4C701B6010E941D05DE
:1005600020E030E040E05FE30E947B030E945904FA
:10057000072E000C880B990B0E94910420E030E0BC
:1005800048EC52E40E94E7030A50110922E030E0EF
:1005900044E050E00E948A0581E191E00E940F034F
:1005A000CE010B960E940F038FE191E00E940F0392
:1005B000C8010E940F038DE291E00E940F036B9629
:1005C0000FB6F894DEBF0FBECDBFDF91CF911F9164
:1005D0000F91FF90EF90DF90CF90BF90AF909F90E2
:1005E0008F90089582E08093C0001092C50080E152
:1005F0008093C40088E18093C10086E08093C200AC
:1006000008959091C00095FFFCCF8093C600089597
:100610008091C00087FFFCCF8091C60008950F93A2
:100620001F93CF938C01C0E0F801EC0FF11D808186
:10063000882321F00E940103CF5FF6CFCF911F9155
:100640000F910895CF93982F92959F70C82FCF70D8
:100650009A3010F480E301C087E5890F0E940103FE
:10066000CA3010F480E301C087E58C0FCF910C9461
:1006700001030E94F2020E9453012FEF81EE94E0E9
:10068000215080409040E1F700C000000E94C4016A
:100690000E94DC012FEF83ED90E3215080409040D9
:1006A000E1F7F2CF97FB072E16F4009407D077FD01
:1006B00009D00E94660307FC05D03EF49095819511
:1006C0009F4F0895709561957F4F0895AA1BBB1B9E
:1006D00051E107C0AA1FBB1FA617B70710F0A61B42
:1006E000B70B881F991F5A95A9F780959095BC0163
:1006F000CD0108955058BB27AA270E9492030C945D
:10070000E3040E94D50438F00E94DC0420F039F4A0
:100710009F3F19F426F40C94D2040EF4E095E7FB05
:100720000C94CC04E92F0E94F40458F3BA17620722
:1007300073078407950720F079F4A6F50C94160545
:100740000EF4E0950B2EBA2FA02D0B01B9019001EC
:100750000C01CA01A0011124FF27591B99F0593F30
:1007600050F4503E68F11A16F040A22F232F342F78
:100770004427585FF3CF469537952795A795F040C6
:100780005395C9F77EF41F16BA0B620B730B840BDB
:10079000BAF09150A1F0FF0FBB1F661F771F881F93
:1007A000C2F70EC0BA0F621F731F841F48F48795EB
:1007B00077956795B795F7959E3F08F0B0CF9395DD
:1007C000880F08F09927EE0F9795879508950E9456
:1007D000FB030C94E3040E94DC0458F00E94D5044F
:1007E00040F029F45F3F29F00C94CC0451110C9493
:1007F00017050C94D2040E94F40468F39923B1F312
:10080000552391F3951B550BBB27AA276217730736
:10081000840738F09F5F5F4F220F331F441FAA1FCA
:10082000A9F335D00E2E3AF0E0E832D09150504086
:10083000E695001CCAF72BD0FE2F29D0660F771F34
:10084000881FBB1F261737074807AB07B0E809F01A
:10085000BB0B802DBF01FF2793585F4F3AF09E3F9F
:10086000510578F00C94CC040C9417055F3FE4F329
:10087000983ED4F3869577956795B795F7959F5FE2
:10088000C9F7880F911D9695879597F90895E1E02E
:10089000660F771F881FBB1F621773078407BA078D
:1008A00020F0621B730B840BBA0BEE1F88F7E095E8
:1008B00008950E9460046894B1110C94170508957E
:1008C0000E94FC0488F09F5798F0B92F9927B751E0
:1008D000B0F0E1F0660F771F881F991F1AF0BA95E4
:1008E000C9F714C0B13091F00E941605B1E0089527
:1008F0000C941605672F782F8827B85F39F0B93F19
:10090000CCF3869577956795B395D9F73EF4909596
:100910008095709561957F4F8F4F9F4F0895E89414
:1009200009C097FB3EF490958095709561957F4F37
:100930008F4F9F4F9923A9F0F92F96E9BB279395E5
:10094000F695879577956795B795F111F8CFFAF4F5
:10095000BB0F11F460FF1BC06F5F7F4F8F4F9F4F26
:1009600016C0882311F096E911C0772321F09EE884
:10097000872F762F05C0662371F096E8862F70E0EA
:1009800060E02AF09A95660F771F881FDAF7880FC4
:100990009695879597F9089597F99F6780E870E095
:1009A00060E008959FEF80EC089500240A941616E5
:1009B000170618060906089500240A94121613064D
:1009C000140605060895092E0394000C11F48823DB
:1009D00052F0BB0F40F4BF2B11F460FF04C06F5FF7
:1009E0007F4F8F4F9F4F089557FD9058440F551FCD
:1009F00059F05F3F71F04795880F97FB991F61F0A1
:100A00009F3F79F087950895121613061406551F17
:100A1000F2CF4695F1DF08C0161617061806991F83
:100A2000F1CF86957105610508940895E894BB2778
:100A300066277727CB0197F908950E9430050C941B
:100A4000E3040E94D50438F00E94DC0420F09523D2
:100A500011F00C94CC040C94D20411240C941705BE
:100A60000E94F40470F3959FC1F3950F50E0551F59
:100A7000629FF001729FBB27F00DB11D639FAA27F3
:100A8000F00DB11DAA1F649F6627B00DA11D661F42
:100A9000829F2227B00DA11D621F739FB00DA11D63
:100AA000621F839FA00D611D221F749F3327A00D1D
:100AB000611D231F849F600D211D822F762F6A2FB9
:100AC00011249F5750409AF0F1F088234AF0EE0F1E
:100AD000FF1FBB1F661F771F881F91505040A9F74B
:100AE0009E3F510580F00C94CC040C9417055F3F99
:100AF000E4F3983ED4F3869577956795B795F79587
:100B0000E7959F5FC1F7FE2B880F911D96958795FE
:100B100097F90895EF920F931F93CF93DF93E80116
:100B200047FD02C034E001C034E1042E000C550B37
:100B300057FF03C0519541955109E32E022F242FF1
:100B4000AE010E94AA05CE01DF91CF911F910F91B6
:100B5000EF900895A9E0B0E0E0EBF5E00C94E20737
:100B60006A01122FB02E2BE3201720F0FF24F394FC
:100B7000F00E02C02CE3F22E0F2D27E0AE014F5FE6
:100B80005F4F0E940407BC014981842F8970813026
:100B900031F0E1FC06C0E0FE06C090E205C09DE237
:100BA00003C09BE201C090E05E2D507143FF3CC04A
:100BB000911102C083E001C084E0811718F4212F55
:100BC000281B01C020E051110BC0F601822F30E23A
:100BD000882319F031938150FBCFC20ED11C20E045
:100BE000992329F0D6019C93F60131966F01C60135
:100BF0000396E2FE0AC03EE4D6013C9341E411961E
:100C00004C93119712963C9306C03EE6F601308352
:100C100041E641833283FC01322F40E2332309F461
:100C200042C041933150FACF42FF44C0911102C0FB
:100C300083E001C084E0811718F4212F281B01C034
:100C400020E051110BC0F601822F30E2882319F009
:100C500031938150FBCFC20ED11C20E0992329F0A3
:100C6000D6019C93F60131966F01C6010396E2FE10
:100C70000BC039E4D6013C933EE411963C931197A6
:100C800036E412963C9307C039E6F60130833EE61F
:100C9000318336E63283FC01322F40E2332319F0F0
:100CA00041933150FBCFFC01E20FF11D10828EEF1A
:100CB0009FEFA6C021E030E0911102C020E030E0BB
:100CC000161617061CF4FB01319602C0E1E0F0E0B5
:100CD0002E0F3F1FBB2021F0EB2DF0E0319602C01C
:100CE000E0E0F0E02E0F3F1FE12FF0E02E173F076E
:100CF0001CF4121B212F01C020E08E2D887159F4A5
:100D0000F601822F30E2882319F031938150FBCF16
:100D1000C20ED11C20E0992329F0D6019C93F60144
:100D200031966F0151110BC0F601822F90E3882399
:100D300019F091938150FBCFC20ED11C20E00F2DF2
:100D4000060F9A81342F307144FF03C0913309F4A8
:100D50000150101624F4093018F008E001C001E039
:100D6000AB0177FF02C040E050E0FB01E41BF50B54
:100D7000A1E0B0E0AC0FBD1FEA0FFB1F8EE2A82E72
:100D80004B01801A91080B2D10E011950195110966
:100D90004F3FBFEF5B0721F4D601AC9211966D0176
:100DA000641775072CF08416950614F4818101C030
:100DB00080E3415051093196D60111967D014017CB
:100DC000510724F0D6018C936701E2CF64177507B1
:100DD00039F4963320F4953319F4311101C081E3CD
:100DE000F6018083F701822F90E2882319F0919316
:100DF0008150FBCFF701E20FF11D108280E090E0FF
:100E00002996ECE00C94FE07283008F027E0332701
:100E1000DA01990F311D87FD91600096610571051A
:100E200039F432602E5F3D9330E32A95E1F708955F
:100E30009F3F30F080387105610509F03C5F3C5FF1
:100E40003D93913008F08068911DDF93CF931F93FD
:100E50000F93FF92EF92192F987F9695E92F969511
:100E60009695E90FFF27EE53FF4F99273327EE247E
:100E7000FF24A701E70105900894079428F4360F92
:100E8000E71EF81E491F511D660F771F881F991F07
:100E90000694A1F70590079428F4E70EF81E491F61
:100EA000561FC11D770F881F991F661F0694A1F753
:100EB0000590079428F4F80E491F561FC71FD11D2F
:100EC000880F991F661F771F0694A1F70590079456
:100ED00020F4490F561FC71FD81F990F661F771F91
:100EE000881F0694A9F784911095177041F0D69544
:100EF000C79557954795F794E7941A95C1F7E8E693
:100F0000F0E0689415901591359165919591059053
:100F10007FE27395E118F10A430B560BC90BD00918
:100F2000C0F7E10CF11E431F561FC91FD01D7EF4F0
:100F3000703311F48A95E6CFE894015030F0080F31
:100F40000AF40027021708F4202F2395022F7A3382
:100F500028F079E37D932A95E9F710C07D932A95CF
:100F600089F6069497956795379517951794E11824
:100F7000F10A430B560BC90BD00998F023957E91CB
:100F800073957A3308F070E37C932013B8F77E9161
:100F900070617D9330F0839571E37D9370E32A95C2
:100FA000E1F71124EF90FF900F911F91CF91DF9106
:100FB000992787FD909508952F923F924F925F92C7
:100FC0006F927F928F929F92AF92BF92CF92DF9259
:100FD000EF92FF920F931F93CF93DF93CDB7DEB7BE
:100FE000CA1BDB0B0FB6F894DEBF0FBECDBF099452
:100FF0002A88398848885F846E847D848C849B84A9
:10100000AA84B984C884DF80EE80FD800C811B81B6
:10101000AA81B981CE0FD11D0FB6F894DEBF0FBEE5
:0A102000CDBFED010895F894FFCF55
:10102A003031323334353637383941424344454614
:10103A000054656D70657261747572653A2000437B
:10104A002C2048756D69646974793A2000250D0A67
:02105A00000094
:00000001FF
